00054209122024HD0912202446634291000170MUN. DE ITAPETININGA000002                                                                                                                            000001
00054207122024M000000000032412964823LILIAN CRISTIANE DO AMARAL                                  00000000055030                                                                              000002
00054209122024T00000000055030000001                                                                                                                                                         000003
